{
  "_format": "hh-sol-artifact-1",
  "contractName": "Genesis",
  "sourceName": "src/contracts/Genesis.sol",
  "abi": [
    {
      "inputs": [
        {
          "internalType": "uint256",
          "name": "_projectTax",
          "type": "uint256"
        }
      ],
      "stateMutability": "nonpayable",
      "type": "constructor"
    },
    {
      "anonymous": false,
      "inputs": [
        {
          "indexed": false,
          "internalType": "uint256",
          "name": "id",
          "type": "uint256"
        },
        {
          "indexed": false,
          "internalType": "string",
          "name": "actionType",
          "type": "string"
        },
        {
          "indexed": true,
          "internalType": "address",
          "name": "executor",
          "type": "address"
        },
        {
          "indexed": false,
          "internalType": "uint256",
          "name": "timestamp",
          "type": "uint256"
        }
      ],
      "name": "Action",
      "type": "event"
    },
    {
      "inputs": [
        {
          "internalType": "uint256",
          "name": "id",
          "type": "uint256"
        }
      ],
      "name": "backProject",
      "outputs": [
        {
          "internalType": "bool",
          "name": "",
          "type": "bool"
        }
      ],
      "stateMutability": "payable",
      "type": "function"
    },
    {
      "inputs": [],
      "name": "balance",
      "outputs": [
        {
          "internalType": "uint256",
          "name": "",
          "type": "uint256"
        }
      ],
      "stateMutability": "view",
      "type": "function"
    },
    {
      "inputs": [
        {
          "internalType": "uint256",
          "name": "_taxPct",
          "type": "uint256"
        }
      ],
      "name": "changeTax",
      "outputs": [],
      "stateMutability": "nonpayable",
      "type": "function"
    },
    {
      "inputs": [
        {
          "internalType": "string",
          "name": "title",
          "type": "string"
        },
        {
          "internalType": "string",
          "name": "description",
          "type": "string"
        },
        {
          "internalType": "string",
          "name": "imageURL",
          "type": "string"
        },
        {
          "internalType": "uint256",
          "name": "cost",
          "type": "uint256"
        },
        {
          "internalType": "uint256",
          "name": "expiresAt",
          "type": "uint256"
        }
      ],
      "name": "createProject",
      "outputs": [
        {
          "internalType": "bool",
          "name": "",
          "type": "bool"
        }
      ],
      "stateMutability": "nonpayable",
      "type": "function"
    },
    {
      "inputs": [
        {
          "internalType": "uint256",
          "name": "id",
          "type": "uint256"
        }
      ],
      "name": "deleteProject",
      "outputs": [
        {
          "internalType": "bool",
          "name": "",
          "type": "bool"
        }
      ],
      "stateMutability": "nonpayable",
      "type": "function"
    },
    {
      "inputs": [
        {
          "internalType": "uint256",
          "name": "id",
          "type": "uint256"
        }
      ],
      "name": "getBackers",
      "outputs": [
        {
          "components": [
            {
              "internalType": "address",
              "name": "owner",
              "type": "address"
            },
            {
              "internalType": "uint256",
              "name": "contribution",
              "type": "uint256"
            },
            {
              "internalType": "uint256",
              "name": "timestamp",
              "type": "uint256"
            },
            {
              "internalType": "bool",
              "name": "refunded",
              "type": "bool"
            }
          ],
          "internalType": "struct Genesis.backerStruct[]",
          "name": "",
          "type": "tuple[]"
        }
      ],
      "stateMutability": "view",
      "type": "function"
    },
    {
      "inputs": [
        {
          "internalType": "uint256",
          "name": "id",
          "type": "uint256"
        }
      ],
      "name": "getProject",
      "outputs": [
        {
          "components": [
            {
              "internalType": "uint256",
              "name": "id",
              "type": "uint256"
            },
            {
              "internalType": "address",
              "name": "owner",
              "type": "address"
            },
            {
              "internalType": "string",
              "name": "title",
              "type": "string"
            },
            {
              "internalType": "string",
              "name": "description",
              "type": "string"
            },
            {
              "internalType": "string",
              "name": "imageURL",
              "type": "string"
            },
            {
              "internalType": "uint256",
              "name": "cost",
              "type": "uint256"
            },
            {
              "internalType": "uint256",
              "name": "raised",
              "type": "uint256"
            },
            {
              "internalType": "uint256",
              "name": "timestamp",
              "type": "uint256"
            },
            {
              "internalType": "uint256",
              "name": "expiresAt",
              "type": "uint256"
            },
            {
              "internalType": "uint256",
              "name": "backers",
              "type": "uint256"
            },
            {
              "internalType": "enum Genesis.statusEnum",
              "name": "status",
              "type": "uint8"
            }
          ],
          "internalType": "struct Genesis.projectStruct",
          "name": "",
          "type": "tuple"
        }
      ],
      "stateMutability": "view",
      "type": "function"
    },
    {
      "inputs": [],
      "name": "getProjects",
      "outputs": [
        {
          "components": [
            {
              "internalType": "uint256",
              "name": "id",
              "type": "uint256"
            },
            {
              "internalType": "address",
              "name": "owner",
              "type": "address"
            },
            {
              "internalType": "string",
              "name": "title",
              "type": "string"
            },
            {
              "internalType": "string",
              "name": "description",
              "type": "string"
            },
            {
              "internalType": "string",
              "name": "imageURL",
              "type": "string"
            },
            {
              "internalType": "uint256",
              "name": "cost",
              "type": "uint256"
            },
            {
              "internalType": "uint256",
              "name": "raised",
              "type": "uint256"
            },
            {
              "internalType": "uint256",
              "name": "timestamp",
              "type": "uint256"
            },
            {
              "internalType": "uint256",
              "name": "expiresAt",
              "type": "uint256"
            },
            {
              "internalType": "uint256",
              "name": "backers",
              "type": "uint256"
            },
            {
              "internalType": "enum Genesis.statusEnum",
              "name": "status",
              "type": "uint8"
            }
          ],
          "internalType": "struct Genesis.projectStruct[]",
          "name": "",
          "type": "tuple[]"
        }
      ],
      "stateMutability": "view",
      "type": "function"
    },
    {
      "inputs": [],
      "name": "owner",
      "outputs": [
        {
          "internalType": "address",
          "name": "",
          "type": "address"
        }
      ],
      "stateMutability": "view",
      "type": "function"
    },
    {
      "inputs": [
        {
          "internalType": "uint256",
          "name": "id",
          "type": "uint256"
        }
      ],
      "name": "payOutProject",
      "outputs": [
        {
          "internalType": "bool",
          "name": "",
          "type": "bool"
        }
      ],
      "stateMutability": "nonpayable",
      "type": "function"
    },
    {
      "inputs": [],
      "name": "projectCount",
      "outputs": [
        {
          "internalType": "uint256",
          "name": "",
          "type": "uint256"
        }
      ],
      "stateMutability": "view",
      "type": "function"
    },
    {
      "inputs": [
        {
          "internalType": "uint256",
          "name": "",
          "type": "uint256"
        }
      ],
      "name": "projectExist",
      "outputs": [
        {
          "internalType": "bool",
          "name": "",
          "type": "bool"
        }
      ],
      "stateMutability": "view",
      "type": "function"
    },
    {
      "inputs": [],
      "name": "projectTax",
      "outputs": [
        {
          "internalType": "uint256",
          "name": "",
          "type": "uint256"
        }
      ],
      "stateMutability": "view",
      "type": "function"
    },
    {
      "inputs": [],
      "name": "stats",
      "outputs": [
        {
          "internalType": "uint256",
          "name": "totalProjects",
          "type": "uint256"
        },
        {
          "internalType": "uint256",
          "name": "totalBacking",
          "type": "uint256"
        },
        {
          "internalType": "uint256",
          "name": "totalDonations",
          "type": "uint256"
        }
      ],
      "stateMutability": "view",
      "type": "function"
    },
    {
      "inputs": [
        {
          "internalType": "uint256",
          "name": "id",
          "type": "uint256"
        },
        {
          "internalType": "string",
          "name": "title",
          "type": "string"
        },
        {
          "internalType": "string",
          "name": "description",
          "type": "string"
        },
        {
          "internalType": "string",
          "name": "imageURL",
          "type": "string"
        },
        {
          "internalType": "uint256",
          "name": "cost",
          "type": "uint256"
        },
        {
          "internalType": "uint256",
          "name": "expiresAt",
          "type": "uint256"
        }
      ],
      "name": "updateProject",
      "outputs": [
        {
          "internalType": "bool",
          "name": "",
          "type": "bool"
        }
      ],
      "stateMutability": "nonpayable",
      "type": "function"
    }
  ],
  "bytecode": "0x608060405234801561001057600080fd5b5060405161205d38038061205d83398101604081905261002f91610049565b600080546001600160a01b03191633179055600155610062565b60006020828403121561005b57600080fd5b5051919050565b611fec806100716000396000f3fe6080604052600436106100e85760003560e01c8063b531dcba1161008a578063d24cd3ec11610059578063d24cd3ec14610286578063d80528ae1461029c578063dcc60128146102d6578063f0f3f2c8146102f857600080fd5b8063b531dcba14610203578063b69ef8a814610223578063c9168b7214610239578063cf4a4d8b1461026657600080fd5b80634cd0cb28116100c65780634cd0cb28146101685780638593054b146101885780638da5cb5b146101b85780639f39a194146101f057600080fd5b8063056c29ee146100ed57806336fbad26146101225780633e45c8af14610146575b600080fd5b3480156100f957600080fd5b5061010d610108366004611aeb565b610325565b60405190151581526020015b60405180910390f35b34801561012e57600080fd5b5061013860025481565b604051908152602001610119565b34801561015257600080fd5b50610166610161366004611b85565b61078f565b005b34801561017457600080fd5b5061010d610183366004611b85565b6107e4565b34801561019457600080fd5b5061010d6101a3366004611b85565b600a6020526000908152604090205460ff1681565b3480156101c457600080fd5b506000546101d8906001600160a01b031681565b6040516001600160a01b039091168152602001610119565b61010d6101fe366004611b85565b610960565b34801561020f57600080fd5b5061010d61021e366004611b85565b610d6d565b34801561022f57600080fd5b5061013860035481565b34801561024557600080fd5b50610259610254366004611b85565b610e71565b6040516101199190611b9e565b34801561027257600080fd5b5061010d610281366004611c0d565b610f13565b34801561029257600080fd5b5061013860015481565b3480156102a857600080fd5b506004546005546006546102bb92919083565b60408051938452602084019290925290820152606001610119565b3480156102e257600080fd5b506102eb6111e5565b6040516101199190611dfb565b34801561030457600080fd5b50610318610313366004611b85565b611480565b6040516101199190611e5d565b6000808651116103745760405162461bcd60e51b81526020600482015260156024820152745469746c652063616e6e6f7420626520656d70747960581b60448201526064015b60405180910390fd5b60008551116103c55760405162461bcd60e51b815260206004820152601b60248201527f4465736372697074696f6e2063616e6e6f7420626520656d7074790000000000604482015260640161036b565b60008451116104115760405162461bcd60e51b8152602060048201526018602482015277496d61676555524c2063616e6e6f7420626520656d70747960401b604482015260640161036b565b600083116104575760405162461bcd60e51b8152602060048201526013602482015272436f73742063616e6e6f74206265207a65726f60681b604482015260640161036b565b61045f61193c565b600254815233602080830191825260408301898152606084018990526080840188905260a084018790524260e085015261010084018690526007805460018101825560009190915284517fa66cc928b5edb82af9bd49922954155ab7b0942694bea4ce44661d9a8736c688600b90920291820190815593517fa66cc928b5edb82af9bd49922954155ab7b0942694bea4ce44661d9a8736c689820180546001600160a01b0319166001600160a01b039092169190911790559051805185949361054c937fa66cc928b5edb82af9bd49922954155ab7b0942694bea4ce44661d9a8736c68a019201906119af565b50606082015180516105689160038401916020909101906119af565b50608082015180516105849160048401916020909101906119af565b5060a0820151600582015560c0820151600682015560e0820151600782015561010082015160088201556101208201516009820155610140820151600a8201805460ff191660018360038111156105dd576105dd611cfe565b021790555050600280546000908152600a602090815260408083208054600160ff1990911681179091553384526008835281842080548083018255908552938390208751600b909502019384558683015190840180546001600160a01b0319166001600160a01b039092169190911790558501518051869550929361066a939085019291909101906119af565b50606082015180516106869160038401916020909101906119af565b50608082015180516106a29160048401916020909101906119af565b5060a0820151600582015560c0820151600682015560e0820151600782015561010082015160088201556101208201516009820155610140820151600a8201805460ff191660018360038111156106fb576106fb611cfe565b021790555050506001600460000160008282546107189190611e8d565b9091555050600280543391600080516020611f978339815191529190600061073f83611ea5565b9091555060408051918252606060208301819052600f908301526e141493d29150d50810d49150551151608a1b6080830152429082015260a0015b60405180910390a25060019695505050505050565b6000546001600160a01b031633146107df5760405162461bcd60e51b81526020600482015260136024820152724f776e6572207265736572766564206f6e6c7960681b604482015260640161036b565b600155565b600080600783815481106107fa576107fa611ec0565b60009182526020909120600a600b90920201015460ff16600381111561082257610822611cfe565b1461086a5760405162461bcd60e51b8152602060048201526018602482015277141c9bda9958dd081b9bc81b1bdb99d95c881bdc195b995960421b604482015260640161036b565b6007828154811061087d5761087d611ec0565b60009182526020909120600b90910201600101546001600160a01b031633146108b85760405162461bcd60e51b815260040161036b90611ed6565b6002600783815481106108cd576108cd611ec0565b60009182526020909120600a600b9092020101805460ff191660018360038111156108fa576108fa611cfe565b021790555061090882611760565b60408051838152606060208201819052600f908201526e141493d29150d50811115311551151608a1b6080820152428183015290513391600080516020611f97833981519152919081900360a00190a2506001919050565b60008034116109b15760405162461bcd60e51b815260206004820152601f60248201527f4574686572206d7573742062652067726561746572207468616e207a65726f00604482015260640161036b565b6000828152600a602052604090205460ff16610a035760405162461bcd60e51b8152602060048201526011602482015270141c9bda9958dd081b9bdd08199bdd5b99607a1b604482015260640161036b565b600060078381548110610a1857610a18611ec0565b60009182526020909120600a600b90920201015460ff166003811115610a4057610a40611cfe565b14610a885760405162461bcd60e51b8152602060048201526018602482015277141c9bda9958dd081b9bc81b1bdb99d95c881bdc195b995960421b604482015260640161036b565b600160046001016000828254610a9e9190611e8d565b909155505060068054349190600090610ab8908490611e8d565b925050819055503460078381548110610ad357610ad3611ec0565b90600052602060002090600b02016006016000828254610af39190611e8d565b92505081905550600160078381548110610b0f57610b0f611ec0565b90600052602060002090600b02016009016000828254610b2f9190611e8d565b9091555050600082815260096020908152604080832081516080808201845233808352348387019081524284870181815260608087018b8152885460018082018b55998d529b8b902097516004909c0290970180546001600160a01b0319166001600160a01b03909c169b909b178b559251968a01969096559451600289015592516003909701805460ff1916971515979097179096558351888152948501829052600e918501919091526d141493d29150d508109050d2d15160921b9084015290820152600080516020611f978339815191529060a00160405180910390a260078281548110610c2257610c22611ec0565b90600052602060002090600b02016005015460078381548110610c4757610c47611ec0565b90600052602060002090600b02016006015410610cf257600160078381548110610c7357610c73611ec0565b60009182526020909120600a600b9092020101805460ff19166001836003811115610ca057610ca0611cfe565b021790555060078281548110610cb857610cb8611ec0565b90600052602060002090600b02016006015460036000828254610cdb9190611e8d565b90915550610cea905082611760565b506001919050565b60078281548110610d0557610d05611ec0565b90600052602060002090600b0201600801544210610cea57600160078381548110610d3257610d32611ec0565b60009182526020909120600a600b9092020101805460ff19166001836003811115610d5f57610d5f611cfe565b0217905550610cea82611760565b600060078281548110610d8257610d82611ec0565b60009182526020909120600b90910201600101546001600160a01b0316331480610db657506000546001600160a01b031633145b610dd25760405162461bcd60e51b815260040161036b90611ed6565b600160078381548110610de757610de7611ec0565b60009182526020909120600a600b9092020101805460ff19166001836003811115610e1457610e14611cfe565b021790555060408051838152606060208201819052600e908201526d14d510551554c81554111055115160921b6080820152428183015290513391600080516020611f97833981519152919081900360a00190a2610cea82611760565b606060096000838152602001908152602001600020805480602002602001604051908101604052809291908181526020016000905b82821015610f08576000848152602090819020604080516080810182526004860290920180546001600160a01b03168352600180820154848601526002820154928401929092526003015460ff16151560608301529083529092019101610ea6565b505050509050919050565b600060078781548110610f2857610f28611ec0565b60009182526020909120600b90910201600101546001600160a01b03163314610f635760405162461bcd60e51b815260040161036b90611ed6565b6000865111610fac5760405162461bcd60e51b81526020600482015260156024820152745469746c652063616e6e6f7420626520656d70747960581b604482015260640161036b565b6000855111610ffd5760405162461bcd60e51b815260206004820152601b60248201527f4465736372697074696f6e2063616e6e6f7420626520656d7074790000000000604482015260640161036b565b60008451116110495760405162461bcd60e51b8152602060048201526018602482015277496d61676555524c2063616e6e6f7420626520656d70747960401b604482015260640161036b565b6000831161108f5760405162461bcd60e51b8152602060048201526013602482015272436f73742063616e6e6f74206265207a65726f60681b604482015260640161036b565b85600788815481106110a3576110a3611ec0565b90600052602060002090600b020160020190805190602001906110c79291906119af565b5084600788815481106110dc576110dc611ec0565b90600052602060002090600b020160030190805190602001906111009291906119af565b50836007888154811061111557611115611ec0565b90600052602060002090600b020160040190805190602001906111399291906119af565b50826007888154811061114e5761114e611ec0565b90600052602060002090600b020160050181905550816007888154811061117757611177611ec0565b90600052602060002090600b020160080181905550336001600160a01b0316600080516020611f97833981519152884260405161077a929190918252606060208301819052600f908301526e141493d29150d50815541110551151608a1b6080830152604082015260a00190565b60606007805480602002602001604051908101604052809291908181526020016000905b828210156114775760008481526020908190206040805161016081018252600b86029092018054835260018101546001600160a01b0316938301939093526002830180549293929184019161125d90611f03565b80601f016020809104026020016040519081016040528092919081815260200182805461128990611f03565b80156112d65780601f106112ab576101008083540402835291602001916112d6565b820191906000526020600020905b8154815290600101906020018083116112b957829003601f168201915b505050505081526020016003820180546112ef90611f03565b80601f016020809104026020016040519081016040528092919081815260200182805461131b90611f03565b80156113685780601f1061133d57610100808354040283529160200191611368565b820191906000526020600020905b81548152906001019060200180831161134b57829003601f168201915b5050505050815260200160048201805461138190611f03565b80601f01602080910402602001604051908101604052809291908181526020018280546113ad90611f03565b80156113fa5780601f106113cf576101008083540402835291602001916113fa565b820191906000526020600020905b8154815290600101906020018083116113dd57829003601f168201915b505050918352505060058201546020820152600682015460408201526007820154606082015260088201546080820152600982015460a0820152600a82015460c09091019060ff16600381111561145357611453611cfe565b600381111561146457611464611cfe565b8152505081526020019060010190611209565b50505050905090565b61148861193c565b6000828152600a602052604090205460ff166114da5760405162461bcd60e51b8152602060048201526011602482015270141c9bda9958dd081b9bdd08199bdd5b99607a1b604482015260640161036b565b600782815481106114ed576114ed611ec0565b90600052602060002090600b020160405180610160016040529081600082015481526020016001820160009054906101000a90046001600160a01b03166001600160a01b03166001600160a01b0316815260200160028201805461155090611f03565b80601f016020809104026020016040519081016040528092919081815260200182805461157c90611f03565b80156115c95780601f1061159e576101008083540402835291602001916115c9565b820191906000526020600020905b8154815290600101906020018083116115ac57829003601f168201915b505050505081526020016003820180546115e290611f03565b80601f016020809104026020016040519081016040528092919081815260200182805461160e90611f03565b801561165b5780601f106116305761010080835404028352916020019161165b565b820191906000526020600020905b81548152906001019060200180831161163e57829003601f168201915b5050505050815260200160048201805461167490611f03565b80601f01602080910402602001604051908101604052809291908181526020018280546116a090611f03565b80156116ed5780601f106116c2576101008083540402835291602001916116ed565b820191906000526020600020905b8154815290600101906020018083116116d057829003601f168201915b505050918352505060058201546020820152600682015460408201526007820154606082015260088201546080820152600982015460a0820152600a82015460c09091019060ff16600381111561174657611746611cfe565b600381111561175757611757611cfe565b90525092915050565b60006007828154811061177557611775611ec0565b90600052602060002090600b0201600601549050600060646001548361179b9190611f3e565b6117a59190611f5d565b90506003600784815481106117bc576117bc611ec0565b60009182526020909120600a600b9092020101805460ff191660018360038111156117e9576117e9611cfe565b02179055506118306007848154811061180457611804611ec0565b600091825260209091206001600b9092020101546001600160a01b031661182b8385611f7f565b6118d7565b600054611846906001600160a01b0316826118d7565b6007838154811061185957611859611ec0565b90600052602060002090600b0201600601546003600082825461187c9190611f7f565b9091555050604080518481526060602082018190526010908201526f141493d29150d508141052510813d55560821b6080820152428183015290513391600080516020611f97833981519152919081900360a00190a2505050565b6000826001600160a01b03168260405160006040518083038185875af1925050503d8060008114611924576040519150601f19603f3d011682016040523d82523d6000602084013e611929565b606091505b505090508061193757600080fd5b505050565b6040518061016001604052806000815260200160006001600160a01b031681526020016060815260200160608152602001606081526020016000815260200160008152602001600081526020016000815260200160008152602001600060038111156119aa576119aa611cfe565b905290565b8280546119bb90611f03565b90600052602060002090601f0160209004810192826119dd5760008555611a23565b82601f106119f657805160ff1916838001178555611a23565b82800160010185558215611a23579182015b82811115611a23578251825591602001919060010190611a08565b50611a2f929150611a33565b5090565b5b80821115611a2f5760008155600101611a34565b634e487b7160e01b600052604160045260246000fd5b600082601f830112611a6f57600080fd5b813567ffffffffffffffff80821115611a8a57611a8a611a48565b604051601f8301601f19908116603f01168101908282118183101715611ab257611ab2611a48565b81604052838152866020858801011115611acb57600080fd5b836020870160208301376000602085830101528094505050505092915050565b600080600080600060a08688031215611b0357600080fd5b853567ffffffffffffffff80821115611b1b57600080fd5b611b2789838a01611a5e565b96506020880135915080821115611b3d57600080fd5b611b4989838a01611a5e565b95506040880135915080821115611b5f57600080fd5b50611b6c88828901611a5e565b9598949750949560608101359550608001359392505050565b600060208284031215611b9757600080fd5b5035919050565b602080825282518282018190526000919060409081850190868401855b82811015611c0057815180516001600160a01b031685528681015187860152858101518686015260609081015115159085015260809093019290850190600101611bbb565b5091979650505050505050565b60008060008060008060c08789031215611c2657600080fd5b86359550602087013567ffffffffffffffff80821115611c4557600080fd5b611c518a838b01611a5e565b96506040890135915080821115611c6757600080fd5b611c738a838b01611a5e565b95506060890135915080821115611c8957600080fd5b50611c9689828a01611a5e565b9350506080870135915060a087013590509295509295509295565b6000815180845260005b81811015611cd757602081850181015186830182015201611cbb565b81811115611ce9576000602083870101525b50601f01601f19169290920160200192915050565b634e487b7160e01b600052602160045260246000fd5b60048110611d3257634e487b7160e01b600052602160045260246000fd5b9052565b6000610160825184526020830151611d5960208601826001600160a01b03169052565b506040830151816040860152611d7182860182611cb1565b91505060608301518482036060860152611d8b8282611cb1565b91505060808301518482036080860152611da58282611cb1565b91505060a083015160a085015260c083015160c085015260e083015160e085015261010080840151818601525061012080840151818601525061014080840151611df182870182611d14565b5090949350505050565b6000602080830181845280855180835260408601915060408160051b870101925083870160005b82811015611e5057603f19888603018452611e3e858351611d36565b94509285019290850190600101611e22565b5092979650505050505050565b602081526000611e706020830184611d36565b9392505050565b634e487b7160e01b600052601160045260246000fd5b60008219821115611ea057611ea0611e77565b500190565b6000600019821415611eb957611eb9611e77565b5060010190565b634e487b7160e01b600052603260045260246000fd5b602080825260139082015272556e617574686f72697a656420456e7469747960681b604082015260600190565b600181811c90821680611f1757607f821691505b60208210811415611f3857634e487b7160e01b600052602260045260246000fd5b50919050565b6000816000190483118215151615611f5857611f58611e77565b500290565b600082611f7a57634e487b7160e01b600052601260045260246000fd5b500490565b600082821015611f9157611f91611e77565b50039056feaee8e5d3bbb2f71a951b5632cee20f7ac487b9f8ab4f66a236f7694b13af7c6aa264697066735822122078526d34c6edd84b0896850806b19c3d0306681746719a1d043bb5ba0da5b37164736f6c634300080b0033",
  "linkReferences": {},
  "deployedLinkReferences": {}
}